{
  "contractName": "Assignment_3ABC",
  "abi": [
    {
      "inputs": [],
      "stateMutability": "nonpayable",
      "type": "constructor"
    },
    {
      "anonymous": false,
      "inputs": [
        {
          "indexed": false,
          "internalType": "address",
          "name": "buyer",
          "type": "address"
        },
        {
          "indexed": false,
          "internalType": "uint256",
          "name": "purchasedTokens",
          "type": "uint256"
        }
      ],
      "name": "Valuerecieved",
      "type": "event"
    },
    {
      "anonymous": false,
      "inputs": [
        {
          "indexed": true,
          "internalType": "address",
          "name": "_owner",
          "type": "address"
        },
        {
          "indexed": true,
          "internalType": "address",
          "name": "spender",
          "type": "address"
        },
        {
          "indexed": false,
          "internalType": "uint256",
          "name": "numOfToken",
          "type": "uint256"
        }
      ],
      "name": "approval",
      "type": "event"
    },
    {
      "anonymous": false,
      "inputs": [
        {
          "indexed": true,
          "internalType": "address",
          "name": "to",
          "type": "address"
        },
        {
          "indexed": false,
          "internalType": "uint256",
          "name": "numOfToken",
          "type": "uint256"
        }
      ],
      "name": "transfer",
      "type": "event"
    },
    {
      "stateMutability": "payable",
      "type": "fallback"
    },
    {
      "inputs": [],
      "name": "approver",
      "outputs": [
        {
          "internalType": "address",
          "name": "",
          "type": "address"
        }
      ],
      "stateMutability": "view",
      "type": "function"
    },
    {
      "inputs": [],
      "name": "cappedLimit",
      "outputs": [
        {
          "internalType": "uint256",
          "name": "",
          "type": "uint256"
        }
      ],
      "stateMutability": "view",
      "type": "function"
    },
    {
      "inputs": [],
      "name": "releaseTime",
      "outputs": [
        {
          "internalType": "uint256",
          "name": "",
          "type": "uint256"
        }
      ],
      "stateMutability": "view",
      "type": "function"
    },
    {
      "inputs": [],
      "name": "tokenPrice",
      "outputs": [
        {
          "internalType": "uint256",
          "name": "",
          "type": "uint256"
        }
      ],
      "stateMutability": "view",
      "type": "function"
    },
    {
      "inputs": [],
      "name": "totalSupply",
      "outputs": [
        {
          "internalType": "uint256",
          "name": "",
          "type": "uint256"
        }
      ],
      "stateMutability": "view",
      "type": "function"
    },
    {
      "stateMutability": "payable",
      "type": "receive"
    },
    {
      "inputs": [
        {
          "internalType": "address",
          "name": "account",
          "type": "address"
        }
      ],
      "name": "balanceOf",
      "outputs": [
        {
          "internalType": "uint256",
          "name": "",
          "type": "uint256"
        }
      ],
      "stateMutability": "view",
      "type": "function"
    },
    {
      "inputs": [
        {
          "internalType": "address",
          "name": "delegate",
          "type": "address"
        },
        {
          "internalType": "uint256",
          "name": "numOfToken",
          "type": "uint256"
        }
      ],
      "name": "Approval",
      "outputs": [
        {
          "internalType": "bool",
          "name": "",
          "type": "bool"
        }
      ],
      "stateMutability": "nonpayable",
      "type": "function"
    },
    {
      "inputs": [
        {
          "internalType": "address",
          "name": "tokenOwner",
          "type": "address"
        },
        {
          "internalType": "address",
          "name": "delegate",
          "type": "address"
        }
      ],
      "name": "allowance",
      "outputs": [
        {
          "internalType": "uint256",
          "name": "",
          "type": "uint256"
        }
      ],
      "stateMutability": "view",
      "type": "function"
    },
    {
      "inputs": [],
      "name": "buyToken",
      "outputs": [
        {
          "internalType": "bool",
          "name": "",
          "type": "bool"
        }
      ],
      "stateMutability": "payable",
      "type": "function"
    },
    {
      "inputs": [
        {
          "internalType": "address",
          "name": "account",
          "type": "address"
        },
        {
          "internalType": "uint256",
          "name": "mintedToken",
          "type": "uint256"
        }
      ],
      "name": "mintToken",
      "outputs": [],
      "stateMutability": "nonpayable",
      "type": "function"
    },
    {
      "inputs": [
        {
          "internalType": "address",
          "name": "receiver",
          "type": "address"
        },
        {
          "internalType": "uint256",
          "name": "numOfToken",
          "type": "uint256"
        }
      ],
      "name": "Transfer",
      "outputs": [
        {
          "internalType": "bool",
          "name": "",
          "type": "bool"
        }
      ],
      "stateMutability": "nonpayable",
      "type": "function"
    },
    {
      "inputs": [
        {
          "internalType": "address",
          "name": "newOwner",
          "type": "address"
        }
      ],
      "name": "transferOwnership",
      "outputs": [],
      "stateMutability": "nonpayable",
      "type": "function"
    },
    {
      "inputs": [
        {
          "internalType": "address",
          "name": "delegatedAddress",
          "type": "address"
        }
      ],
      "name": "setApprover",
      "outputs": [],
      "stateMutability": "nonpayable",
      "type": "function"
    },
    {
      "inputs": [
        {
          "internalType": "uint256",
          "name": "newPrice",
          "type": "uint256"
        }
      ],
      "name": "setPrice",
      "outputs": [
        {
          "internalType": "uint256",
          "name": "",
          "type": "uint256"
        }
      ],
      "stateMutability": "nonpayable",
      "type": "function"
    },
    {
      "inputs": [
        {
          "internalType": "uint256",
          "name": "numOfToken",
          "type": "uint256"
        }
      ],
      "name": "returnToken",
      "outputs": [
        {
          "internalType": "uint256",
          "name": "",
          "type": "uint256"
        }
      ],
      "stateMutability": "payable",
      "type": "function"
    }
  ],
  "bytecode": "0x608060405261012c42620000149190620000de565b600455670de0b6b3a76400006005553480156200003057600080fd5b50612710600081905550600054600660003373ffffffffffffffffffffffffffffffffffffffff1673ffffffffffffffffffffffffffffffffffffffff1681526020019081526020016000208190555033600160006101000a81548173ffffffffffffffffffffffffffffffffffffffff021916908373ffffffffffffffffffffffffffffffffffffffff1602179055506002600054620000d291906200013b565b600381905550620001d5565b6000620000eb826200019c565b9150620000f8836200019c565b9250827fffffffffffffffffffffffffffffffffffffffffffffffffffffffffffffffff0382111562000130576200012f620001a6565b5b828201905092915050565b600062000148826200019c565b915062000155836200019c565b9250817fffffffffffffffffffffffffffffffffffffffffffffffffffffffffffffffff0483118215151615620001915762000190620001a6565b5b828202905092915050565b6000819050919050565b7f4e487b7100000000000000000000000000000000000000000000000000000000600052601160045260246000fd5b6118d980620001e56000396000f3fe6080604052600436106100ec5760003560e01c806379c650681161008a578063b91d400111610059578063b91d400114610361578063c26641781461038c578063dd62ed3e146103b7578063f2fde38b146103f4576100fc565b806379c65068146102b25780637ff9b596146102db57806391b7f5ed14610306578063a482171914610343576100fc565b80633156560e116100c65780633156560e146101df5780636178efee1461020857806369ca02dd1461023857806370a0823114610275576100fc565b8063141a8dd81461014c57806318160ddd146101775780631e410981146101a2576100fc565b366100fc576100f961041d565b50005b3373ffffffffffffffffffffffffffffffffffffffff167fa9059cbb2ab09eb219583f4a59a5d0623ade346d962bcd4e46b11da047c9049b34604051610142919061168e565b60405180910390a2005b34801561015857600080fd5b50610161610650565b60405161016e91906115af565b60405180910390f35b34801561018357600080fd5b5061018c610676565b604051610199919061168e565b60405180910390f35b3480156101ae57600080fd5b506101c960048036038101906101c4919061141d565b61067c565b6040516101d691906115f3565b60405180910390f35b3480156101eb57600080fd5b50610206600480360381019061020191906113b8565b6107fe565b005b610222600480360381019061021d9190611459565b610942565b60405161022f919061168e565b60405180910390f35b34801561024457600080fd5b5061025f600480360381019061025a919061141d565b610bc2565b60405161026c91906115f3565b60405180910390f35b34801561028157600080fd5b5061029c600480360381019061029791906113b8565b610e03565b6040516102a9919061168e565b60405180910390f35b3480156102be57600080fd5b506102d960048036038101906102d4919061141d565b610e4c565b005b3480156102e757600080fd5b506102f061105c565b6040516102fd919061168e565b60405180910390f35b34801561031257600080fd5b5061032d60048036038101906103289190611459565b611062565b60405161033a919061168e565b60405180910390f35b61034b61041d565b60405161035891906115f3565b60405180910390f35b34801561036d57600080fd5b506103766111b7565b604051610383919061168e565b60405180910390f35b34801561039857600080fd5b506103a16111bd565b6040516103ae919061168e565b60405180910390f35b3480156103c357600080fd5b506103de60048036038101906103d991906113e1565b6111c3565b6040516103eb919061168e565b60405180910390f35b34801561040057600080fd5b5061041b600480360381019061041691906113b8565b61124a565b005b6000806005543461042e9190611710565b905060055434101561043f57600080fd5b600073ffffffffffffffffffffffffffffffffffffffff163373ffffffffffffffffffffffffffffffffffffffff1614156104af576040517f08c379a00000000000000000000000000000000000000000000000000000000081526004016104a69061162e565b60405180910390fd5b80600660003373ffffffffffffffffffffffffffffffffffffffff1673ffffffffffffffffffffffffffffffffffffffff168152602001908152602001600020546104fa91906116ba565b600660003373ffffffffffffffffffffffffffffffffffffffff1673ffffffffffffffffffffffffffffffffffffffff168152602001908152602001600020819055508060066000600160009054906101000a900473ffffffffffffffffffffffffffffffffffffffff1673ffffffffffffffffffffffffffffffffffffffff1673ffffffffffffffffffffffffffffffffffffffff168152602001908152602001600020546105aa919061179b565b60066000600160009054906101000a900473ffffffffffffffffffffffffffffffffffffffff1673ffffffffffffffffffffffffffffffffffffffff1673ffffffffffffffffffffffffffffffffffffffff168152602001908152602001600020819055507f74b22082323141f417d580ea0daa582a7f7cff20c50da723d3dc80097d31ae4533346040516106409291906115ca565b60405180910390a1600191505090565b600260009054906101000a900473ffffffffffffffffffffffffffffffffffffffff1681565b60005481565b6000600160009054906101000a900473ffffffffffffffffffffffffffffffffffffffff1673ffffffffffffffffffffffffffffffffffffffff163373ffffffffffffffffffffffffffffffffffffffff161461070e576040517f08c379a00000000000000000000000000000000000000000000000000000000081526004016107059061164e565b60405180910390fd5b81600760003373ffffffffffffffffffffffffffffffffffffffff1673ffffffffffffffffffffffffffffffffffffffff16815260200190815260200160002060008573ffffffffffffffffffffffffffffffffffffffff1673ffffffffffffffffffffffffffffffffffffffff168152602001908152602001600020819055508273ffffffffffffffffffffffffffffffffffffffff163373ffffffffffffffffffffffffffffffffffffffff167f5c52a5f2b86fd16be577188b5a83ef1165faddc00b137b10285f16162e17792a846040516107ec919061168e565b60405180910390a36001905092915050565b600160009054906101000a900473ffffffffffffffffffffffffffffffffffffffff1673ffffffffffffffffffffffffffffffffffffffff163373ffffffffffffffffffffffffffffffffffffffff161461088e576040517f08c379a00000000000000000000000000000000000000000000000000000000081526004016108859061164e565b60405180910390fd5b600073ffffffffffffffffffffffffffffffffffffffff168173ffffffffffffffffffffffffffffffffffffffff1614156108fe576040517f08c379a00000000000000000000000000000000000000000000000000000000081526004016108f59061166e565b60405180910390fd5b80600260006101000a81548173ffffffffffffffffffffffffffffffffffffffff021916908373ffffffffffffffffffffffffffffffffffffffff16021790555050565b6000600660003373ffffffffffffffffffffffffffffffffffffffff1673ffffffffffffffffffffffffffffffffffffffff1681526020019081526020016000205482111561099057600080fd5b6000600554836109a09190611741565b905082600660003373ffffffffffffffffffffffffffffffffffffffff1673ffffffffffffffffffffffffffffffffffffffff168152602001908152602001600020546109ed919061179b565b600660003373ffffffffffffffffffffffffffffffffffffffff1673ffffffffffffffffffffffffffffffffffffffff168152602001908152602001600020819055508260066000600160009054906101000a900473ffffffffffffffffffffffffffffffffffffffff1673ffffffffffffffffffffffffffffffffffffffff1673ffffffffffffffffffffffffffffffffffffffff16815260200190815260200160002054610a9d91906116ba565b60066000600160009054906101000a900473ffffffffffffffffffffffffffffffffffffffff1673ffffffffffffffffffffffffffffffffffffffff1673ffffffffffffffffffffffffffffffffffffffff168152602001908152602001600020819055503373ffffffffffffffffffffffffffffffffffffffff166108fc829081150290604051600060405180830381858888f19350505050158015610b48573d6000803e3d6000fd5b50600160009054906101000a900473ffffffffffffffffffffffffffffffffffffffff1673ffffffffffffffffffffffffffffffffffffffff167fa9059cbb2ab09eb219583f4a59a5d0623ade346d962bcd4e46b11da047c9049b84604051610bb1919061168e565b60405180910390a280915050919050565b6000600660003373ffffffffffffffffffffffffffffffffffffffff1673ffffffffffffffffffffffffffffffffffffffff16815260200190815260200160002054821115610c1057600080fd5b600073ffffffffffffffffffffffffffffffffffffffff168373ffffffffffffffffffffffffffffffffffffffff161415610c80576040517f08c379a0000000000000000000000000000000000000000000000000000000008152600401610c779061160e565b60405180910390fd5b600454421015610c8f57600080fd5b81600660003373ffffffffffffffffffffffffffffffffffffffff1673ffffffffffffffffffffffffffffffffffffffff16815260200190815260200160002054610cda919061179b565b600660003373ffffffffffffffffffffffffffffffffffffffff1673ffffffffffffffffffffffffffffffffffffffff1681526020019081526020016000208190555081600660008573ffffffffffffffffffffffffffffffffffffffff1673ffffffffffffffffffffffffffffffffffffffff16815260200190815260200160002054610d6891906116ba565b600660008573ffffffffffffffffffffffffffffffffffffffff1673ffffffffffffffffffffffffffffffffffffffff168152602001908152602001600020819055508273ffffffffffffffffffffffffffffffffffffffff167fa9059cbb2ab09eb219583f4a59a5d0623ade346d962bcd4e46b11da047c9049b83604051610df1919061168e565b60405180910390a26001905092915050565b6000600660008373ffffffffffffffffffffffffffffffffffffffff1673ffffffffffffffffffffffffffffffffffffffff168152602001908152602001600020549050919050565b600160009054906101000a900473ffffffffffffffffffffffffffffffffffffffff1673ffffffffffffffffffffffffffffffffffffffff163373ffffffffffffffffffffffffffffffffffffffff1614610edc576040517f08c379a0000000000000000000000000000000000000000000000000000000008152600401610ed39061164e565b60405180910390fd5b600073ffffffffffffffffffffffffffffffffffffffff168273ffffffffffffffffffffffffffffffffffffffff161415610f4c576040517f08c379a0000000000000000000000000000000000000000000000000000000008152600401610f439061160e565b60405180910390fd5b60035460005482610f5d91906116ba565b1115610f6857600080fd5b80600660008473ffffffffffffffffffffffffffffffffffffffff1673ffffffffffffffffffffffffffffffffffffffff16815260200190815260200160002054610fb391906116ba565b600660008473ffffffffffffffffffffffffffffffffffffffff1673ffffffffffffffffffffffffffffffffffffffff168152602001908152602001600020819055508060005461100491906116ba565b6000819055508173ffffffffffffffffffffffffffffffffffffffff167fa9059cbb2ab09eb219583f4a59a5d0623ade346d962bcd4e46b11da047c9049b82604051611050919061168e565b60405180910390a25050565b60055481565b6000600160009054906101000a900473ffffffffffffffffffffffffffffffffffffffff1673ffffffffffffffffffffffffffffffffffffffff163373ffffffffffffffffffffffffffffffffffffffff16148061110d5750600260009054906101000a900473ffffffffffffffffffffffffffffffffffffffff1673ffffffffffffffffffffffffffffffffffffffff163373ffffffffffffffffffffffffffffffffffffffff16145b61111657600080fd5b600160009054906101000a900473ffffffffffffffffffffffffffffffffffffffff1673ffffffffffffffffffffffffffffffffffffffff163373ffffffffffffffffffffffffffffffffffffffff16146111a6576040517f08c379a000000000000000000000000000000000000000000000000000000000815260040161119d9061164e565b60405180910390fd5b816005819055506005549050919050565b60045481565b60035481565b6000600760008473ffffffffffffffffffffffffffffffffffffffff1673ffffffffffffffffffffffffffffffffffffffff16815260200190815260200160002060008373ffffffffffffffffffffffffffffffffffffffff1673ffffffffffffffffffffffffffffffffffffffff16815260200190815260200160002054905092915050565b600160009054906101000a900473ffffffffffffffffffffffffffffffffffffffff1673ffffffffffffffffffffffffffffffffffffffff163373ffffffffffffffffffffffffffffffffffffffff16146112da576040517f08c379a00000000000000000000000000000000000000000000000000000000081526004016112d19061164e565b60405180910390fd5b600073ffffffffffffffffffffffffffffffffffffffff168173ffffffffffffffffffffffffffffffffffffffff16141561134a576040517f08c379a00000000000000000000000000000000000000000000000000000000081526004016113419061166e565b60405180910390fd5b80600160006101000a81548173ffffffffffffffffffffffffffffffffffffffff021916908373ffffffffffffffffffffffffffffffffffffffff16021790555050565b60008135905061139d81611875565b92915050565b6000813590506113b28161188c565b92915050565b6000602082840312156113ca57600080fd5b60006113d88482850161138e565b91505092915050565b600080604083850312156113f457600080fd5b60006114028582860161138e565b92505060206114138582860161138e565b9150509250929050565b6000806040838503121561143057600080fd5b600061143e8582860161138e565b925050602061144f858286016113a3565b9150509250929050565b60006020828403121561146b57600080fd5b6000611479848285016113a3565b91505092915050565b61148b816117cf565b82525050565b61149a816117e1565b82525050565b60006114ad600f836116a9565b91507f496e76616c6964206164647265737300000000000000000000000000000000006000830152602082019050919050565b60006114ed600d836116a9565b91507f496e76616c6964206275796572000000000000000000000000000000000000006000830152602082019050919050565b600061152d6015836116a9565b91507f796f7520617265206e6f7420746865206f776e657200000000000000000000006000830152602082019050919050565b600061156d600f836116a9565b91507f496e76616c6964204164647265737300000000000000000000000000000000006000830152602082019050919050565b6115a98161180d565b82525050565b60006020820190506115c46000830184611482565b92915050565b60006040820190506115df6000830185611482565b6115ec60208301846115a0565b9392505050565b60006020820190506116086000830184611491565b92915050565b60006020820190508181036000830152611627816114a0565b9050919050565b60006020820190508181036000830152611647816114e0565b9050919050565b6000602082019050818103600083015261166781611520565b9050919050565b6000602082019050818103600083015261168781611560565b9050919050565b60006020820190506116a360008301846115a0565b92915050565b600082825260208201905092915050565b60006116c58261180d565b91506116d08361180d565b9250827fffffffffffffffffffffffffffffffffffffffffffffffffffffffffffffffff0382111561170557611704611817565b5b828201905092915050565b600061171b8261180d565b91506117268361180d565b92508261173657611735611846565b5b828204905092915050565b600061174c8261180d565b91506117578361180d565b9250817fffffffffffffffffffffffffffffffffffffffffffffffffffffffffffffffff04831182151516156117905761178f611817565b5b828202905092915050565b60006117a68261180d565b91506117b18361180d565b9250828210156117c4576117c3611817565b5b828203905092915050565b60006117da826117ed565b9050919050565b60008115159050919050565b600073ffffffffffffffffffffffffffffffffffffffff82169050919050565b6000819050919050565b7f4e487b7100000000000000000000000000000000000000000000000000000000600052601160045260246000fd5b7f4e487b7100000000000000000000000000000000000000000000000000000000600052601260045260246000fd5b61187e816117cf565b811461188957600080fd5b50565b6118958161180d565b81146118a057600080fd5b5056fea2646970667358221220fc3f2616c4a2e609dc6b4ec656984290ed0b891201ab57f4ea880cb5dfac58ab64736f6c63430008000033",
  "immutableReferences": {},
  "source": "// SPDX-License-Identifier: MIT\r\n\r\npragma solidity ^0.8.0;\r\n\r\n\r\ninterface IERC20 {\r\n    /**\r\n     * @dev Returns the amount of tokens in existence.\r\n     */\r\n    function totalSupply() external view returns (uint256);\r\n\r\n    /**\r\n     * @dev Returns the amount of tokens owned by `account`.\r\n     */\r\n    function balanceOf(address account) external view returns (uint256);\r\n\r\n    /**\r\n     * @dev Moves `amount` tokens from the caller's account to `recipient`.\r\n     *\r\n     * Returns a boolean value indicating whether the operation succeeded.\r\n     *\r\n     * Emits a {Transfer} event.\r\n     */\r\n    function transfer(address recipient, uint256 amount) external returns (bool);\r\n\r\n    /**\r\n     * @dev Returns the remaining number of tokens that `spender` will be\r\n     * allowed to spend on behalf of `owner` through {transferFrom}. This is\r\n     * zero by default.\r\n     *\r\n     * This value changes when {approve} or {transferFrom} are called.\r\n     */\r\n    function allowance(address owner, address spender) external view returns (uint256);\r\n\r\n    /**\r\n     * @dev Sets `amount` as the allowance of `spender` over the caller's tokens.\r\n     *\r\n     * Returns a boolean value indicating whether the operation succeeded.\r\n     *\r\n     * IMPORTANT: Beware that changing an allowance with this method brings the risk\r\n     * that someone may use both the old and the new allowance by unfortunate\r\n     * transaction ordering. One possible solution to mitigate this race\r\n     * condition is to first reduce the spender's allowance to 0 and set the\r\n     * desired value afterwards:\r\n     * https://github.com/ethereum/EIPs/issues/20#issuecomment-263524729\r\n     *\r\n     * Emits an {Approval} event.\r\n     */\r\n    function approve(address spender, uint256 amount) external returns (bool);\r\n\r\n    /**\r\n     * @dev Moves `amount` tokens from `sender` to `recipient` using the\r\n     * allowance mechanism. `amount` is then deducted from the caller's\r\n     * allowance.\r\n     *\r\n     * Returns a boolean value indicating whether the operation succeeded.\r\n     *\r\n     * Emits a {Transfer} event.\r\n     */\r\n    function transferFrom(\r\n        address sender,\r\n        address recipient,\r\n        uint256 amount\r\n    ) external returns (bool);\r\n\r\n    /**\r\n     * @dev Emitted when `value` tokens are moved from one account (`from`) to\r\n     * another (`to`).\r\n     *\r\n     * Note that `value` may be zero.\r\n     */\r\n    event Transfer(address indexed from, address indexed to, uint256 value);\r\n\r\n    /**\r\n     * @dev Emitted when the allowance of a `spender` for an `owner` is set by\r\n     * a call to {approve}. `value` is the new allowance.\r\n     */\r\n    event Approval(address indexed owner, address indexed spender, uint256 value);\r\n}\r\ncontract Assignment_3ABC{\r\n    \r\n    uint public totalSupply;\r\n    address private owner;\r\n    address public approver; \r\n    uint public cappedLimit;\r\n    uint public releaseTime= block.timestamp + 5 minutes;\r\n\r\n    \r\n    event approval(address indexed _owner, address indexed spender, uint numOfToken);\r\n    event transfer(address indexed to, uint numOfToken);\r\n    event Valuerecieved(address buyer, uint purchasedTokens);\r\n    // string public constant name;\r\n    // string public constant symbol;\r\n    // uint public constant decimals;\r\n    \r\n    uint public tokenPrice = 1 ether;\r\n    \r\n    mapping(address => uint256 ) balance;\r\n    mapping (address => mapping(address => uint256))allowed;\r\n    \r\n     modifier onlyOwner() {\r\n        require (msg.sender == owner, \"you are not the owner\");\r\n        _;\r\n    }\r\n    modifier delegatedOwner(){\r\n        require(msg.sender == owner || msg.sender == approver);\r\n        _;\r\n    }\r\n    \r\n    constructor() {\r\n        totalSupply = 10000;\r\n        balance[msg.sender] = totalSupply;\r\n        owner = msg.sender;\r\n        cappedLimit = totalSupply*2;\r\n    }\r\n        \r\n        function balanceOf(address account) public view returns(uint256){\r\n            return balance[account];\r\n        }   \r\n        \r\n       \r\n        function Approval(address delegate, uint numOfToken) public onlyOwner returns(bool){\r\n            allowed[msg.sender][delegate] = numOfToken;\r\n            emit approval(msg.sender, delegate, numOfToken);\r\n            return true;\r\n        }\r\n        \r\n        function allowance(address tokenOwner, address delegate) public view returns(uint){\r\n            return allowed[tokenOwner][delegate];\r\n        }\r\n        \r\n        \r\n    function buyToken()public payable returns(bool){\r\n        uint tokenQty = msg.value/tokenPrice;\r\n        require(msg.value>= tokenPrice);\r\n        require(msg.sender != address(0), \"Invalid buyer\");\r\n        balance[msg.sender] = balance[msg.sender] + tokenQty;\r\n        balance[owner] = balance[owner] - tokenQty;\r\n         emit Valuerecieved(msg.sender, msg.value);\r\n        return true;\r\n       \r\n    }\r\n    \r\n     \r\n     fallback() external payable{\r\n        emit transfer(msg.sender, msg.value);\r\n    }\r\n    \r\n    receive() external payable{\r\n        buyToken();\r\n    }\r\n \r\n    function mintToken(address account, uint mintedToken) public onlyOwner {\r\n        require(account != address(0), \"Invalid address\");\r\n        require(mintedToken+ totalSupply <= cappedLimit);\r\n        balance[account]= balance[account] +mintedToken;\r\n        totalSupply = totalSupply + mintedToken;\r\n        emit transfer( account, mintedToken);\r\n        \r\n    }\r\n    \r\n    function Transfer(address receiver, uint numOfToken) public returns(bool){\r\n            require(numOfToken <= balance[msg.sender]);\r\n            require (receiver != address(0), \"Invalid address\");\r\n            require (block.timestamp >= releaseTime);\r\n            balance[msg.sender] = balance[msg.sender] - numOfToken;\r\n            balance[receiver] = balance[receiver] + numOfToken;\r\n            emit transfer(receiver, numOfToken);\r\n            return true;\r\n        }\r\n// 3C(1)\r\n// 1. Owner can transfer the ownership of the Token Contract.\r\n    function transferOwnership(address newOwner) public onlyOwner{\r\n        require(newOwner != address(0), \"Invalid Address\");\r\n        owner = newOwner;\r\n    }\r\n//   3C(2)\r\n    // 2. Owner can approve or delegate anybody to manage the pricing of tokens.\r\n    \r\n    function setApprover(address delegatedAddress) external onlyOwner{\r\n        require (delegatedAddress != address(0), \"Invalid Address\");\r\n        approver = delegatedAddress;\r\n    }\r\n// 3C(3)\r\n// 3. Update pricing method to allow owner and approver to change the price of the token\r\n     function setPrice(uint newPrice) public delegatedOwner onlyOwner returns(uint){\r\n        tokenPrice = newPrice;\r\n        return (tokenPrice);\r\n     }\r\n//  3C(4)\r\n//  3. Add the ability that Token Holder can return the Token and get back the Ether based on the current price.\r\n    function returnToken(uint numOfToken) public payable returns(uint){\r\n        require(numOfToken <= balance[msg.sender]);\r\n        uint value = (numOfToken*tokenPrice);\r\n        balance[msg.sender] = balance[msg.sender] - numOfToken;\r\n        balance[owner] = balance[owner] + numOfToken;\r\n        payable(msg.sender).transfer(value);\r\n        emit transfer(owner, numOfToken);\r\n        return value;\r\n        \r\n    }\r\n\r\n}",
  "sourcePath": "E:\\Q3\\Assignment_3ABC\\contracts\\Assignment_3ABC.sol",
  "compiler": {
    "name": "solc",
    "version": "0.8.0+commit.c7dfd78e.Emscripten.clang"
  },
  "schemaVersion": "3.4.3",
  "updatedAt": "2021-09-07T06:30:11.314Z",
  "devdoc": {
    "kind": "dev",
    "methods": {},
    "version": 1
  },
  "userdoc": {
    "kind": "user",
    "methods": {},
    "version": 1
  }
}